{
  "address": "0x5FbDB2315678afecb367f032d93F642f64180aa3",
  "abi": [
    {
      "anonymous": false,
      "inputs": [
        {
          "indexed": true,
          "internalType": "bytes32",
          "name": "id",
          "type": "bytes32"
        },
        {
          "indexed": true,
          "internalType": "address",
          "name": "proposer",
          "type": "address"
        },
        {
          "indexed": true,
          "internalType": "address",
          "name": "dst",
          "type": "address"
        },
        {
          "indexed": false,
          "internalType": "uint256",
          "name": "time",
          "type": "uint256"
        }
      ],
      "name": "LogCreateProposal",
      "type": "event"
    },
    {
      "anonymous": false,
      "inputs": [
        {
          "indexed": true,
          "internalType": "bytes32",
          "name": "id",
          "type": "bytes32"
        },
        {
          "indexed": true,
          "internalType": "address",
          "name": "dst",
          "type": "address"
        },
        {
          "indexed": false,
          "internalType": "uint256",
          "name": "time",
          "type": "uint256"
        }
      ],
      "name": "LogPassProposal",
      "type": "event"
    },
    {
      "anonymous": false,
      "inputs": [
        {
          "indexed": true,
          "internalType": "bytes32",
          "name": "id",
          "type": "bytes32"
        },
        {
          "indexed": true,
          "internalType": "address",
          "name": "dst",
          "type": "address"
        },
        {
          "indexed": false,
          "internalType": "uint256",
          "name": "time",
          "type": "uint256"
        }
      ],
      "name": "LogRejectProposal",
      "type": "event"
    },
    {
      "anonymous": false,
      "inputs": [
        {
          "indexed": true,
          "internalType": "address",
          "name": "val",
          "type": "address"
        },
        {
          "indexed": false,
          "internalType": "bytes32",
          "name": "id",
          "type": "bytes32"
        },
        {
          "indexed": false,
          "internalType": "uint256",
          "name": "time",
          "type": "uint256"
        }
      ],
      "name": "LogSetUnpassed",
      "type": "event"
    },
    {
      "anonymous": false,
      "inputs": [
        {
          "indexed": true,
          "internalType": "bytes32",
          "name": "id",
          "type": "bytes32"
        },
        {
          "indexed": true,
          "internalType": "address",
          "name": "voter",
          "type": "address"
        },
        {
          "indexed": false,
          "internalType": "bool",
          "name": "auth",
          "type": "bool"
        },
        {
          "indexed": false,
          "internalType": "uint256",
          "name": "time",
          "type": "uint256"
        }
      ],
      "name": "LogVote",
      "type": "event"
    },
    {
      "inputs": [],
      "name": "EPOCH",
      "outputs": [
        {
          "internalType": "uint256",
          "name": "",
          "type": "uint256"
        }
      ],
      "stateMutability": "view",
      "type": "function"
    },
    {
      "inputs": [],
      "name": "MAX_VALIDATORS",
      "outputs": [
        {
          "internalType": "uint16",
          "name": "",
          "type": "uint16"
        }
      ],
      "stateMutability": "view",
      "type": "function"
    },
    {
      "inputs": [],
      "name": "PROPOSAL_CONTRACT",
      "outputs": [
        {
          "internalType": "contract IProposal",
          "name": "",
          "type": "address"
        }
      ],
      "stateMutability": "view",
      "type": "function"
    },
    {
      "inputs": [],
      "name": "PUBLISH_CONTRACT",
      "outputs": [
        {
          "internalType": "contract IPunish",
          "name": "",
          "type": "address"
        }
      ],
      "stateMutability": "view",
      "type": "function"
    },
    {
      "inputs": [],
      "name": "RESERVEPOOL_CONTRACT",
      "outputs": [
        {
          "internalType": "contract IReservePool",
          "name": "",
          "type": "address"
        }
      ],
      "stateMutability": "view",
      "type": "function"
    },
    {
      "inputs": [],
      "name": "VALIDATOR_CONTRACT",
      "outputs": [
        {
          "internalType": "contract IValidators",
          "name": "",
          "type": "address"
        }
      ],
      "stateMutability": "view",
      "type": "function"
    },
    {
      "inputs": [],
      "name": "admin",
      "outputs": [
        {
          "internalType": "address",
          "name": "",
          "type": "address"
        }
      ],
      "stateMutability": "view",
      "type": "function"
    },
    {
      "inputs": [
        {
          "internalType": "address",
          "name": "_admin",
          "type": "address"
        }
      ],
      "name": "changeAdmin",
      "outputs": [],
      "stateMutability": "nonpayable",
      "type": "function"
    },
    {
      "inputs": [
        {
          "internalType": "address",
          "name": "dst",
          "type": "address"
        },
        {
          "internalType": "string",
          "name": "details",
          "type": "string"
        }
      ],
      "name": "createProposal",
      "outputs": [
        {
          "internalType": "bytes32",
          "name": "",
          "type": "bytes32"
        }
      ],
      "stateMutability": "nonpayable",
      "type": "function"
    },
    {
      "inputs": [
        {
          "internalType": "address",
          "name": "val",
          "type": "address"
        }
      ],
      "name": "getLatestProposalId",
      "outputs": [
        {
          "internalType": "bytes32",
          "name": "",
          "type": "bytes32"
        }
      ],
      "stateMutability": "view",
      "type": "function"
    },
    {
      "inputs": [
        {
          "internalType": "address",
          "name": "_admin",
          "type": "address"
        },
        {
          "internalType": "address",
          "name": "_validatorsContract",
          "type": "address"
        },
        {
          "internalType": "address",
          "name": "_punishContract",
          "type": "address"
        },
        {
          "internalType": "address",
          "name": "_proposalContract",
          "type": "address"
        },
        {
          "internalType": "address",
          "name": "_reservePool",
          "type": "address"
        },
        {
          "internalType": "uint256",
          "name": "_epoch",
          "type": "uint256"
        }
      ],
      "name": "initialize",
      "outputs": [],
      "stateMutability": "nonpayable",
      "type": "function"
    },
    {
      "inputs": [
        {
          "internalType": "address",
          "name": "val",
          "type": "address"
        },
        {
          "internalType": "bytes32",
          "name": "id",
          "type": "bytes32"
        }
      ],
      "name": "isProposalPassed",
      "outputs": [
        {
          "internalType": "bool",
          "name": "",
          "type": "bool"
        }
      ],
      "stateMutability": "view",
      "type": "function"
    },
    {
      "inputs": [
        {
          "internalType": "address",
          "name": "",
          "type": "address"
        }
      ],
      "name": "latest",
      "outputs": [
        {
          "internalType": "bytes32",
          "name": "",
          "type": "bytes32"
        }
      ],
      "stateMutability": "view",
      "type": "function"
    },
    {
      "inputs": [
        {
          "internalType": "bytes32",
          "name": "",
          "type": "bytes32"
        }
      ],
      "name": "pass",
      "outputs": [
        {
          "internalType": "bool",
          "name": "",
          "type": "bool"
        }
      ],
      "stateMutability": "view",
      "type": "function"
    },
    {
      "inputs": [],
      "name": "proposalEffectivePeriod",
      "outputs": [
        {
          "internalType": "uint256",
          "name": "",
          "type": "uint256"
        }
      ],
      "stateMutability": "view",
      "type": "function"
    },
    {
      "inputs": [],
      "name": "proposalLastingPeriod",
      "outputs": [
        {
          "internalType": "uint256",
          "name": "",
          "type": "uint256"
        }
      ],
      "stateMutability": "view",
      "type": "function"
    },
    {
      "inputs": [
        {
          "internalType": "bytes32",
          "name": "",
          "type": "bytes32"
        }
      ],
      "name": "proposals",
      "outputs": [
        {
          "internalType": "address",
          "name": "proposer",
          "type": "address"
        },
        {
          "internalType": "address",
          "name": "dst",
          "type": "address"
        },
        {
          "internalType": "string",
          "name": "details",
          "type": "string"
        },
        {
          "internalType": "uint256",
          "name": "createTime",
          "type": "uint256"
        },
        {
          "internalType": "uint16",
          "name": "agree",
          "type": "uint16"
        },
        {
          "internalType": "uint16",
          "name": "reject",
          "type": "uint16"
        },
        {
          "internalType": "bool",
          "name": "resultExist",
          "type": "bool"
        }
      ],
      "stateMutability": "view",
      "type": "function"
    },
    {
      "inputs": [
        {
          "internalType": "address",
          "name": "val",
          "type": "address"
        },
        {
          "internalType": "bytes32",
          "name": "id",
          "type": "bytes32"
        }
      ],
      "name": "setUnpassed",
      "outputs": [
        {
          "internalType": "bool",
          "name": "",
          "type": "bool"
        }
      ],
      "stateMutability": "nonpayable",
      "type": "function"
    },
    {
      "inputs": [
        {
          "internalType": "bytes32",
          "name": "id",
          "type": "bytes32"
        },
        {
          "internalType": "bool",
          "name": "auth",
          "type": "bool"
        }
      ],
      "name": "voteProposal",
      "outputs": [
        {
          "internalType": "bool",
          "name": "",
          "type": "bool"
        }
      ],
      "stateMutability": "nonpayable",
      "type": "function"
    },
    {
      "inputs": [
        {
          "internalType": "address",
          "name": "",
          "type": "address"
        },
        {
          "internalType": "bytes32",
          "name": "",
          "type": "bytes32"
        }
      ],
      "name": "votes",
      "outputs": [
        {
          "internalType": "address",
          "name": "voter",
          "type": "address"
        },
        {
          "internalType": "uint256",
          "name": "voteTime",
          "type": "uint256"
        },
        {
          "internalType": "bool",
          "name": "auth",
          "type": "bool"
        }
      ],
      "stateMutability": "view",
      "type": "function"
    }
  ],
  "transactionHash": "0xe4efe65d19f1bdeeff996d3a0e821731b9eb49db5aed4bb7f0a20e04f4791b3a",
  "args": [],
  "numDeployments": 1,
  "solcInputHash": "3663257ad93ed4c1b3eace3c7da3f631",
  "bytecode": "0x608060405234801561001057600080fd5b50611509806100206000396000f3fe608060405234801561001057600080fd5b50600436106100fc5760003560e01c80631db5ade8146101015780631f4f7d291461015757806332ed5b12146101e757806341505ac2146102c257806346f75138146102f35780634a4aac1a146103175780635d0fabba1461033d57806360c80cbf14610369578063714897df1461037157806377f085c514610390578063863a20b7146103bc5780638d49dab7146103c45780638f283970146103ea57806395b6ef0c14610412578063a0dc27581461045e578063a4c4d92214610466578063c4d629141461048b578063e5a99f4f14610493578063e823c8141461049b578063f851a440146104a3575b600080fd5b61012d6004803603604081101561011757600080fd5b506001600160a01b0381351690602001356104ab565b604080516001600160a01b0390941684526020840192909252151582820152519081900360600190f35b6101d56004803603604081101561016d57600080fd5b6001600160a01b038235169190810190604081016020820135600160201b81111561019757600080fd5b8201836020820111156101a957600080fd5b803590602001918460018302840111600160201b831117156101ca57600080fd5b5090925090506104e4565b60408051918252519081900360200190f35b610204600480360360208110156101fd57600080fd5b5035610760565b60405180886001600160a01b03168152602001876001600160a01b03168152602001806020018681526020018561ffff1681526020018461ffff1681526020018315158152602001828103825287818151815260200191508051906020019080838360005b83811015610281578181015183820152602001610269565b50505050905090810190601f1680156102ae5780820380516001836020036101000a031916815260200191505b509850505050505050505060405180910390f35b6102df600480360360208110156102d857600080fd5b503561083f565b604080519115158252519081900360200190f35b6102fb610854565b604080516001600160a01b039092168252519081900360200190f35b6101d56004803603602081101561032d57600080fd5b50356001600160a01b0316610863565b6102df6004803603604081101561035357600080fd5b506001600160a01b038135169060200135610875565b6102fb610938565b610379610947565b6040805161ffff9092168252519081900360200190f35b6102df600480360360408110156103a657600080fd5b506001600160a01b03813516906020013561094c565b6102fb6109e7565b6101d5600480360360208110156103da57600080fd5b50356001600160a01b03166109f6565b6104106004803603602081101561040057600080fd5b50356001600160a01b0316610a11565b005b610410600480360360c081101561042857600080fd5b506001600160a01b0381358116916020810135821691604082013581169160608101358216916080820135169060a00135610a3b565b6101d5610b07565b6102df6004803603604081101561047c57600080fd5b50803590602001351515610b0d565b6101d561117d565b6102fb611183565b6101d5611192565b6102fb611198565b603e6020908152600092835260408084209091529082529020805460018201546002909201546001600160a01b03909116919060ff1683565b60006104ee6111a7565b6000338585854260405160200180866001600160a01b031660601b8152601401856001600160a01b031660601b81526014018484808284379190910192835250506040805180830381526020928301909152805191012094505050610bb885111591506105979050576040805162461bcd60e51b815260206004820152601060248201526f44657461696c7320746f6f206c6f6e6760801b604482015290519081900360640190fd5b6000818152603d6020526040902060030154156105f5576040805162461bcd60e51b815260206004820152601760248201527650726f706f73616c20616c72656164792065786973747360481b604482015290519081900360640190fd5b6105fd6113b2565b3381526001600160a01b03861660208083019190915260408051601f870183900483028101830190915285815290869086908190840183828082843760009201829052506040808701958652426060880152878252603d60209081529120865181546001600160a01b039182166001600160a01b03199182161783558389015160018401805491909316911617905594518051879695506106a794506002860193509101906113ef565b506060820151600382015560808201516004909101805460a084015160c09094015161ffff1990911661ffff9384161763ffff000019166201000093909416929092029290921760ff60201b1916600160201b911515919091021790556001600160a01b0386166000818152603c602090815260409182902085905581514281529151339286927fc10f2f4d53a0e342536c6af3cce9c6ee25c32dbb323521ce0e1d4494a3e362e892918290030190a450949350505050565b603d6020908152600091825260409182902080546001808301546002808501805488516101009582161595909502600019011691909104601f81018790048702840187019097528683526001600160a01b03938416969390911694919290918301828280156108105780601f106107e557610100808354040283529160200191610810565b820191906000526020600020905b8154815290600101906020018083116107f357829003601f168201915b50505050600383015460049093015491929161ffff80821692506201000082041690600160201b900460ff1687565b603b6020526000908152604090205460ff1681565b6033546001600160a01b031681565b603c6020526000908152604090205481565b6033546000906001600160a01b031633146108d2576040805162461bcd60e51b815260206004820152601860248201527756616c696461746f727320636f6e7472616374206f6e6c7960401b604482015290519081900360640190fd5b6000828152603b6020908152604091829020805460ff191690558151848152429181019190915281516001600160a01b038616927fda72725502035c711b971fc7458dbca8710453cb1ab92034a7e52c38156dc30b928290030190a25060015b92915050565b6036546001600160a01b031681565b601d81565b6001600160a01b0382166000908152603c602052604081205482146109a6576040805162461bcd60e51b815260206004820152600b60248201526a1b9bdd081b585d18da195960aa1b604482015290519081900360640190fd5b603a546039546000848152603d602052604090206003015401014211156109cf57506000610932565b506000818152603b602052604090205460ff16610932565b6035546001600160a01b031681565b6001600160a01b03166000908152603c602052604090205490565b610a196111a7565b603880546001600160a01b0319166001600160a01b0392909216919091179055565b600054610100900460ff1680610a545750610a546111f8565b80610a62575060005460ff16155b610a9d5760405162461bcd60e51b815260040180806020018281038252602e815260200180611483602e913960400191505060405180910390fd5b600054610100900460ff16158015610ac8576000805460ff1961ff0019909116610100171660011790555b610ad1876111fe565b610ade86868686866112bc565b62093a8060395562278d00603a558015610afe576000805461ff00191690555b50505050505050565b60375481565b60335460408051631015428760e21b815233600482015290516000926001600160a01b0316916340550a1c916024808301926020929190829003018186803b158015610b5857600080fd5b505afa158015610b6c573d6000803e3d6000fd5b505050506040513d6020811015610b8257600080fd5b5051610bc6576040805162461bcd60e51b815260206004820152600e60248201526d56616c696461746f72206f6e6c7960901b604482015290519081900360640190fd5b6000838152603d6020526040902060030154610c1e576040805162461bcd60e51b8152602060048201526012602482015271141c9bdc1bdcd85b081b9bdd08195e1a5cdd60721b604482015290519081900360640190fd5b336000908152603e6020908152604080832086845290915290206001015415610c785760405162461bcd60e51b81526004018080602001828103825260238152602001806114b16023913960400191505060405180910390fd5b6039546000848152603d6020526040902060030154014210610cd4576040805162461bcd60e51b815260206004820152601060248201526f141c9bdc1bdcd85b08195e1c1a5c995960821b604482015290519081900360640190fd5b336000818152603e60209081526040808320878452825291829020426001820181905581546001600160a01b031916851782556002909101805460ff1916871515908117909155835190815291820152815186927f6c59bda68cac318717c60c7c9635a78a0f0613f9887cc18a7157f5745a86d14e928290030190a38115610d82576000838152603d60205260409020600401805461ffff8082166001011661ffff19909116179055610db6565b6000838152603d602052604090206004018054600161ffff62010000808404821692909201160263ffff0000199091161790555b6000838152603b602052604090205460ff1680610deb57506000838152603d6020526040902060040154600160201b900460ff165b15610df857506001610932565b603354604080516313bce04b60e31b815290516002926001600160a01b031691639de70258916004808301926000929190829003018186803b158015610e3d57600080fd5b505afa158015610e51573d6000803e3d6000fd5b505050506040513d6000823e601f3d908101601f191682016040526020811015610e7a57600080fd5b8101908080516040519392919084600160201b821115610e9957600080fd5b908301906020820185811115610eae57600080fd5b82518660208202830111600160201b82111715610eca57600080fd5b82525081516020918201928201910280838360005b83811015610ef7578181015183820152602001610edf565b505050509050016040525050505181610f0c57fe5b6000858152603d602052604090206004015491900460010161ffff90911610610fb5576000838152603b60209081526040808320805460ff19166001908117909155603d83529281902060048101805460ff60201b1916600160201b17905590920154825142815292516001600160a01b039091169286927fc9d96d61eb62031865c523ae107f3c22f5ed445af237636bcd88bea1705c70d592918290030190a3506001610932565b603354604080516313bce04b60e31b815290516002926001600160a01b031691639de70258916004808301926000929190829003018186803b158015610ffa57600080fd5b505afa15801561100e573d6000803e3d6000fd5b505050506040513d6000823e601f3d908101601f19168201604052602081101561103757600080fd5b8101908080516040519392919084600160201b82111561105657600080fd5b90830190602082018581111561106b57600080fd5b82518660208202830111600160201b8211171561108757600080fd5b82525081516020918201928201910280838360005b838110156110b457818101518382015260200161109c565b5050505090500160405250505051816110c957fe5b04600101603d600085815260200190815260200160002060040160029054906101000a900461ffff1661ffff1610611174576000838152603b60209081526040808320805460ff19169055603d82529182902060048101805460ff60201b1916600160201b17905560010154825142815292516001600160a01b039091169286927fec955d77e6e7d74e18b1c91977ef0f6fd5a6d02a28d1979686339fe69399782592918290030190a35b50600192915050565b603a5481565b6034546001600160a01b031681565b60395481565b6038546001600160a01b031681565b6038546001600160a01b031633146111f6576040805162461bcd60e51b815260206004820152600d60248201526c36bab9ba1031329030b236b4b760991b604482015290519081900360640190fd5b565b303b1590565b600054610100900460ff168061121757506112176111f8565b80611225575060005460ff16155b6112605760405162461bcd60e51b815260040180806020018281038252602e815260200180611483602e913960400191505060405180910390fd5b600054610100900460ff1615801561128b576000805460ff1961ff0019909116610100171660011790555b603880546001600160a01b0319166001600160a01b03841617905580156112b8576000805461ff00191690555b5050565b600054610100900460ff16806112d557506112d56111f8565b806112e3575060005460ff16155b61131e5760405162461bcd60e51b815260040180806020018281038252602e815260200180611483602e913960400191505060405180910390fd5b600054610100900460ff16158015611349576000805460ff1961ff0019909116610100171660011790555b603380546001600160a01b038089166001600160a01b03199283161790925560348054888416908316179055603580548784169083161790556036805492861692909116919091179055603782905580156113aa576000805461ff00191690555b505050505050565b6040805160e08101825260008082526020820181905260609282018390529181018290526080810182905260a0810182905260c081019190915290565b828054600181600116156101000203166002900490600052602060002090601f016020900481019282601f1061143057805160ff191683800117855561145d565b8280016001018555821561145d579182015b8281111561145d578251825591602001919060010190611442565b5061146992915061146d565b5090565b5b80821115611469576000815560010161146e56fe436f6e747261637420696e7374616e63652068617320616c7265616479206265656e20696e697469616c697a6564596f752063616e277420766f746520666f7220612070726f706f73616c207477696365a264697066735822122076ec05e2cefc1bb8f487d0b6b94870704ee79fc739fc916d6e03e1a211abb81864736f6c634300060c0033",
  "devdoc": {
    "kind": "dev",
    "methods": {},
    "version": 1
  },
  "userdoc": {
    "kind": "user",
    "methods": {},
    "version": 1
  },
  "storageLayout": {
    "storage": [
      {
        "astId": 5,
        "contract": "contracts/Proposal.sol:Proposal",
        "label": "initialized",
        "offset": 0,
        "slot": "0",
        "type": "t_bool"
      },
      {
        "astId": 8,
        "contract": "contracts/Proposal.sol:Proposal",
        "label": "initializing",
        "offset": 1,
        "slot": "0",
        "type": "t_bool"
      },
      {
        "astId": 73,
        "contract": "contracts/Proposal.sol:Proposal",
        "label": "______gap",
        "offset": 0,
        "slot": "1",
        "type": "t_array(t_uint256)50_storage"
      },
      {
        "astId": 136,
        "contract": "contracts/Proposal.sol:Proposal",
        "label": "VALIDATOR_CONTRACT",
        "offset": 0,
        "slot": "51",
        "type": "t_contract(IValidators)6439"
      },
      {
        "astId": 138,
        "contract": "contracts/Proposal.sol:Proposal",
        "label": "PUBLISH_CONTRACT",
        "offset": 0,
        "slot": "52",
        "type": "t_contract(IPunish)6322"
      },
      {
        "astId": 140,
        "contract": "contracts/Proposal.sol:Proposal",
        "label": "PROPOSAL_CONTRACT",
        "offset": 0,
        "slot": "53",
        "type": "t_contract(IProposal)6314"
      },
      {
        "astId": 142,
        "contract": "contracts/Proposal.sol:Proposal",
        "label": "RESERVEPOOL_CONTRACT",
        "offset": 0,
        "slot": "54",
        "type": "t_contract(IReservePool)6330"
      },
      {
        "astId": 144,
        "contract": "contracts/Proposal.sol:Proposal",
        "label": "EPOCH",
        "offset": 0,
        "slot": "55",
        "type": "t_uint256"
      },
      {
        "astId": 81,
        "contract": "contracts/Proposal.sol:Proposal",
        "label": "admin",
        "offset": 0,
        "slot": "56",
        "type": "t_address"
      },
      {
        "astId": 288,
        "contract": "contracts/Proposal.sol:Proposal",
        "label": "proposalLastingPeriod",
        "offset": 0,
        "slot": "57",
        "type": "t_uint256"
      },
      {
        "astId": 290,
        "contract": "contracts/Proposal.sol:Proposal",
        "label": "proposalEffectivePeriod",
        "offset": 0,
        "slot": "58",
        "type": "t_uint256"
      },
      {
        "astId": 294,
        "contract": "contracts/Proposal.sol:Proposal",
        "label": "pass",
        "offset": 0,
        "slot": "59",
        "type": "t_mapping(t_bytes32,t_bool)"
      },
      {
        "astId": 320,
        "contract": "contracts/Proposal.sol:Proposal",
        "label": "latest",
        "offset": 0,
        "slot": "60",
        "type": "t_mapping(t_address,t_bytes32)"
      },
      {
        "astId": 324,
        "contract": "contracts/Proposal.sol:Proposal",
        "label": "proposals",
        "offset": 0,
        "slot": "61",
        "type": "t_mapping(t_bytes32,t_struct(ProposalInfo)309_storage)"
      },
      {
        "astId": 330,
        "contract": "contracts/Proposal.sol:Proposal",
        "label": "votes",
        "offset": 0,
        "slot": "62",
        "type": "t_mapping(t_address,t_mapping(t_bytes32,t_struct(VoteInfo)316_storage))"
      }
    ],
    "types": {
      "t_address": {
        "encoding": "inplace",
        "label": "address",
        "numberOfBytes": "20"
      },
      "t_array(t_uint256)50_storage": {
        "base": "t_uint256",
        "encoding": "inplace",
        "label": "uint256[50]",
        "numberOfBytes": "1600"
      },
      "t_bool": {
        "encoding": "inplace",
        "label": "bool",
        "numberOfBytes": "1"
      },
      "t_bytes32": {
        "encoding": "inplace",
        "label": "bytes32",
        "numberOfBytes": "32"
      },
      "t_contract(IProposal)6314": {
        "encoding": "inplace",
        "label": "contract IProposal",
        "numberOfBytes": "20"
      },
      "t_contract(IPunish)6322": {
        "encoding": "inplace",
        "label": "contract IPunish",
        "numberOfBytes": "20"
      },
      "t_contract(IReservePool)6330": {
        "encoding": "inplace",
        "label": "contract IReservePool",
        "numberOfBytes": "20"
      },
      "t_contract(IValidators)6439": {
        "encoding": "inplace",
        "label": "contract IValidators",
        "numberOfBytes": "20"
      },
      "t_mapping(t_address,t_bytes32)": {
        "encoding": "mapping",
        "key": "t_address",
        "label": "mapping(address => bytes32)",
        "numberOfBytes": "32",
        "value": "t_bytes32"
      },
      "t_mapping(t_address,t_mapping(t_bytes32,t_struct(VoteInfo)316_storage))": {
        "encoding": "mapping",
        "key": "t_address",
        "label": "mapping(address => mapping(bytes32 => struct Proposal.VoteInfo))",
        "numberOfBytes": "32",
        "value": "t_mapping(t_bytes32,t_struct(VoteInfo)316_storage)"
      },
      "t_mapping(t_bytes32,t_bool)": {
        "encoding": "mapping",
        "key": "t_bytes32",
        "label": "mapping(bytes32 => bool)",
        "numberOfBytes": "32",
        "value": "t_bool"
      },
      "t_mapping(t_bytes32,t_struct(ProposalInfo)309_storage)": {
        "encoding": "mapping",
        "key": "t_bytes32",
        "label": "mapping(bytes32 => struct Proposal.ProposalInfo)",
        "numberOfBytes": "32",
        "value": "t_struct(ProposalInfo)309_storage"
      },
      "t_mapping(t_bytes32,t_struct(VoteInfo)316_storage)": {
        "encoding": "mapping",
        "key": "t_bytes32",
        "label": "mapping(bytes32 => struct Proposal.VoteInfo)",
        "numberOfBytes": "32",
        "value": "t_struct(VoteInfo)316_storage"
      },
      "t_string_storage": {
        "encoding": "bytes",
        "label": "string",
        "numberOfBytes": "32"
      },
      "t_struct(ProposalInfo)309_storage": {
        "encoding": "inplace",
        "label": "struct Proposal.ProposalInfo",
        "members": [
          {
            "astId": 296,
            "contract": "contracts/Proposal.sol:Proposal",
            "label": "proposer",
            "offset": 0,
            "slot": "0",
            "type": "t_address"
          },
          {
            "astId": 298,
            "contract": "contracts/Proposal.sol:Proposal",
            "label": "dst",
            "offset": 0,
            "slot": "1",
            "type": "t_address"
          },
          {
            "astId": 300,
            "contract": "contracts/Proposal.sol:Proposal",
            "label": "details",
            "offset": 0,
            "slot": "2",
            "type": "t_string_storage"
          },
          {
            "astId": 302,
            "contract": "contracts/Proposal.sol:Proposal",
            "label": "createTime",
            "offset": 0,
            "slot": "3",
            "type": "t_uint256"
          },
          {
            "astId": 304,
            "contract": "contracts/Proposal.sol:Proposal",
            "label": "agree",
            "offset": 0,
            "slot": "4",
            "type": "t_uint16"
          },
          {
            "astId": 306,
            "contract": "contracts/Proposal.sol:Proposal",
            "label": "reject",
            "offset": 2,
            "slot": "4",
            "type": "t_uint16"
          },
          {
            "astId": 308,
            "contract": "contracts/Proposal.sol:Proposal",
            "label": "resultExist",
            "offset": 4,
            "slot": "4",
            "type": "t_bool"
          }
        ],
        "numberOfBytes": "160"
      },
      "t_struct(VoteInfo)316_storage": {
        "encoding": "inplace",
        "label": "struct Proposal.VoteInfo",
        "members": [
          {
            "astId": 311,
            "contract": "contracts/Proposal.sol:Proposal",
            "label": "voter",
            "offset": 0,
            "slot": "0",
            "type": "t_address"
          },
          {
            "astId": 313,
            "contract": "contracts/Proposal.sol:Proposal",
            "label": "voteTime",
            "offset": 0,
            "slot": "1",
            "type": "t_uint256"
          },
          {
            "astId": 315,
            "contract": "contracts/Proposal.sol:Proposal",
            "label": "auth",
            "offset": 0,
            "slot": "2",
            "type": "t_bool"
          }
        ],
        "numberOfBytes": "96"
      },
      "t_uint16": {
        "encoding": "inplace",
        "label": "uint16",
        "numberOfBytes": "2"
      },
      "t_uint256": {
        "encoding": "inplace",
        "label": "uint256",
        "numberOfBytes": "32"
      }
    }
  }
}