{
  "address": "0xb251461DAA9dAC1C6AbD49C3ab286f6BaB0c03de",
  "abi": [
    {
      "inputs": [],
      "stateMutability": "nonpayable",
      "type": "constructor"
    },
    {
      "anonymous": false,
      "inputs": [
        {
          "indexed": true,
          "internalType": "address",
          "name": "actor",
          "type": "address"
        },
        {
          "indexed": false,
          "internalType": "uint256",
          "name": "amount",
          "type": "uint256"
        }
      ],
      "name": "Deposit",
      "type": "event"
    },
    {
      "anonymous": false,
      "inputs": [
        {
          "indexed": true,
          "internalType": "address",
          "name": "actor",
          "type": "address"
        },
        {
          "indexed": false,
          "internalType": "uint256",
          "name": "amount",
          "type": "uint256"
        }
      ],
      "name": "Withdraw",
      "type": "event"
    },
    {
      "inputs": [],
      "name": "EPOCH",
      "outputs": [
        {
          "internalType": "uint256",
          "name": "",
          "type": "uint256"
        }
      ],
      "stateMutability": "view",
      "type": "function"
    },
    {
      "inputs": [],
      "name": "MAX_BLOCK_REWARD_AMOUNT",
      "outputs": [
        {
          "internalType": "uint256",
          "name": "",
          "type": "uint256"
        }
      ],
      "stateMutability": "view",
      "type": "function"
    },
    {
      "inputs": [],
      "name": "MAX_VALIDATORS",
      "outputs": [
        {
          "internalType": "uint16",
          "name": "",
          "type": "uint16"
        }
      ],
      "stateMutability": "view",
      "type": "function"
    },
    {
      "inputs": [],
      "name": "PROPOSAL_CONTRACT",
      "outputs": [
        {
          "internalType": "contract IProposal",
          "name": "",
          "type": "address"
        }
      ],
      "stateMutability": "view",
      "type": "function"
    },
    {
      "inputs": [],
      "name": "PUBLISH_CONTRACT",
      "outputs": [
        {
          "internalType": "contract IPunish",
          "name": "",
          "type": "address"
        }
      ],
      "stateMutability": "view",
      "type": "function"
    },
    {
      "inputs": [],
      "name": "RESERVEPOOL_CONTRACT",
      "outputs": [
        {
          "internalType": "contract IReservePool",
          "name": "",
          "type": "address"
        }
      ],
      "stateMutability": "view",
      "type": "function"
    },
    {
      "inputs": [],
      "name": "VALIDATOR_CONTRACT",
      "outputs": [
        {
          "internalType": "contract IValidators",
          "name": "",
          "type": "address"
        }
      ],
      "stateMutability": "view",
      "type": "function"
    },
    {
      "inputs": [],
      "name": "admin",
      "outputs": [
        {
          "internalType": "address",
          "name": "",
          "type": "address"
        }
      ],
      "stateMutability": "view",
      "type": "function"
    },
    {
      "inputs": [],
      "name": "blockRewardAmount",
      "outputs": [
        {
          "internalType": "uint256",
          "name": "",
          "type": "uint256"
        }
      ],
      "stateMutability": "view",
      "type": "function"
    },
    {
      "inputs": [
        {
          "internalType": "address",
          "name": "_admin",
          "type": "address"
        }
      ],
      "name": "changeAdmin",
      "outputs": [],
      "stateMutability": "nonpayable",
      "type": "function"
    },
    {
      "inputs": [
        {
          "internalType": "address",
          "name": "_admin",
          "type": "address"
        },
        {
          "internalType": "address",
          "name": "_validatorsContract",
          "type": "address"
        },
        {
          "internalType": "address",
          "name": "_punishContract",
          "type": "address"
        },
        {
          "internalType": "address",
          "name": "_proposalContract",
          "type": "address"
        },
        {
          "internalType": "address",
          "name": "_reservePool",
          "type": "address"
        },
        {
          "internalType": "uint256",
          "name": "_epoch",
          "type": "uint256"
        }
      ],
      "name": "initialize",
      "outputs": [],
      "stateMutability": "nonpayable",
      "type": "function"
    },
    {
      "inputs": [
        {
          "internalType": "uint256",
          "name": "amount",
          "type": "uint256"
        }
      ],
      "name": "setBlockRewardAmount",
      "outputs": [],
      "stateMutability": "nonpayable",
      "type": "function"
    },
    {
      "inputs": [
        {
          "internalType": "enum ReservePool.State",
          "name": "newState",
          "type": "uint8"
        }
      ],
      "name": "setState",
      "outputs": [],
      "stateMutability": "nonpayable",
      "type": "function"
    },
    {
      "inputs": [],
      "name": "state",
      "outputs": [
        {
          "internalType": "enum ReservePool.State",
          "name": "",
          "type": "uint8"
        }
      ],
      "stateMutability": "view",
      "type": "function"
    },
    {
      "inputs": [],
      "name": "withdrawBlockReward",
      "outputs": [
        {
          "internalType": "uint256",
          "name": "",
          "type": "uint256"
        }
      ],
      "stateMutability": "nonpayable",
      "type": "function"
    },
    {
      "stateMutability": "payable",
      "type": "receive"
    }
  ],
  "transactionHash": "0x8e4dcabbf1058b6d057fd367d8ba620fad23f1ab491fbe0ceca318960512201e",
  "args": [],
  "numDeployments": 1,
  "solcInputHash": "3663257ad93ed4c1b3eace3c7da3f631",
  "bytecode": "0x608060405234801561001057600080fd5b50603880546001600160a01b03191633179055610a52806100326000396000f3fe6080604052600436106100bc5760003560e01c806326cc2256146100fe5780632ed19cd51461012557806346f751381461015157806356de96db1461018257806360c80cbf146101af578063714897df146101c4578063828090d0146101f0578063863a20b7146102055780638f2839701461021a57806395b6ef0c1461024d578063a0dc2758146102a6578063c19d93fb146102bb578063cf813c1d146102f1578063e5a99f4f14610306578063f851a4401461031b576100f9565b366100f95760408051348152905133917fe1fffcc4923d04b559f4d29a8bfc6cda04eb5b0d3c460751c2402c5c5cc9109c919081900360200190a2005b600080fd5b34801561010a57600080fd5b50610113610330565b60408051918252519081900360200190f35b34801561013157600080fd5b5061014f6004803603602081101561014857600080fd5b5035610336565b005b34801561015d57600080fd5b506101666103a0565b604080516001600160a01b039092168252519081900360200190f35b34801561018e57600080fd5b5061014f600480360360208110156101a557600080fd5b503560ff166103af565b3480156101bb57600080fd5b5061016661043d565b3480156101d057600080fd5b506101d961044c565b6040805161ffff9092168252519081900360200190f35b3480156101fc57600080fd5b50610113610451565b34801561021157600080fd5b5061016661045e565b34801561022657600080fd5b5061014f6004803603602081101561023d57600080fd5b50356001600160a01b031661046d565b34801561025957600080fd5b5061014f600480360360c081101561027057600080fd5b506001600160a01b0381358116916020810135821691604082013581169160608101358216916080820135169060a00135610497565b3480156102b257600080fd5b50610113610562565b3480156102c757600080fd5b506102d0610568565b604051808260018111156102e057fe5b815260200191505060405180910390f35b3480156102fd57600080fd5b50610113610571565b34801561031257600080fd5b5061016661079f565b34801561032757600080fd5b506101666107ae565b60395481565b61033e6107bd565b68056bc75e2d63100000811061039b576040805162461bcd60e51b815260206004820152601e60248201527f616d6f756e742069732067726561746572207468616e206d6178696d756d0000604482015290519081900360640190fd5b603955565b6033546001600160a01b031681565b6103b76107bd565b60008160018111156103c557fe5b14806103dc575060018160018111156103da57fe5b145b61041d576040805162461bcd60e51b815260206004820152600d60248201526c696e76616c696420737461746560981b604482015290519081900360640190fd5b603b805482919060ff19166001838181111561043557fe5b021790555050565b6036546001600160a01b031681565b601d81565b68056bc75e2d6310000081565b6035546001600160a01b031681565b6104756107bd565b603880546001600160a01b0319166001600160a01b0392909216919091179055565b600054610100900460ff16806104b057506104b061080e565b806104be575060005460ff16155b6104f95760405162461bcd60e51b815260040180806020018281038252602e8152602001806109ef602e913960400191505060405180910390fd5b600054610100900460ff16158015610524576000805460ff1961ff0019909116610100171660011790555b61052d87610814565b61053a86868686866108d2565b603b805460ff191660011790558015610559576000805461ff00191690555b50505050505050565b60375481565b603b5460ff1681565b6033546000906001600160a01b031633146105ce576040805162461bcd60e51b815260206004820152601860248201527756616c696461746f727320636f6e7472616374206f6e6c7960401b604482015290519081900360640190fd5b436000908152603a60205260409020541561061a5760405162461bcd60e51b81526004018080602001828103825260268152602001806109c96026913960400191505060405180910390fd5b6001603b5460ff16600181111561062d57fe5b1461063a5750600061079c565b600060395447111561064f5750603954610652565b50475b436000908152603a602090815260408083206001905580518381529182019052339083906040518082805190602001908083835b602083106106a55780518252601f199092019160209182019101610686565b6001836020036101000a03801982511681845116808217855250505050505090500191505060006040518083038185875af1925050503d8060008114610707576040519150601f19603f3d011682016040523d82523d6000602084013e61070c565b606091505b5050905080610762576040805162461bcd60e51b815260206004820181905260248201527f52657365727665506f6f6c3a204b4353207472616e73666572206661696c6564604482015290519081900360640190fd5b60408051838152905133917f884edad9ce6fa2440d8a54cc123490eb96d2768479d49ff9c7366125a9424364919081900360200190a25090505b90565b6034546001600160a01b031681565b6038546001600160a01b031681565b6038546001600160a01b0316331461080c576040805162461bcd60e51b815260206004820152600d60248201526c36bab9ba1031329030b236b4b760991b604482015290519081900360640190fd5b565b303b1590565b600054610100900460ff168061082d575061082d61080e565b8061083b575060005460ff16155b6108765760405162461bcd60e51b815260040180806020018281038252602e8152602001806109ef602e913960400191505060405180910390fd5b600054610100900460ff161580156108a1576000805460ff1961ff0019909116610100171660011790555b603880546001600160a01b0319166001600160a01b03841617905580156108ce576000805461ff00191690555b5050565b600054610100900460ff16806108eb57506108eb61080e565b806108f9575060005460ff16155b6109345760405162461bcd60e51b815260040180806020018281038252602e8152602001806109ef602e913960400191505060405180910390fd5b600054610100900460ff1615801561095f576000805460ff1961ff0019909116610100171660011790555b603380546001600160a01b038089166001600160a01b03199283161790925560348054888416908316179055603580548784169083161790556036805492861692909116919091179055603782905580156109c0576000805461ff00191690555b50505050505056fe6d756c7469706c65207769746864726177616c7320696e20612073696e676c6520626c6f636b436f6e747261637420696e7374616e63652068617320616c7265616479206265656e20696e697469616c697a6564a26469706673582212208d635f46ff0f9c45088ec240bf1bb1fd460ecc97bb1ecff451f8e871c6fb7ee964736f6c634300060c0033",
  "devdoc": {
    "kind": "dev",
    "methods": {},
    "version": 1
  },
  "userdoc": {
    "kind": "user",
    "methods": {},
    "version": 1
  },
  "storageLayout": {
    "storage": [
      {
        "astId": 5,
        "contract": "contracts/ReservePool.sol:ReservePool",
        "label": "initialized",
        "offset": 0,
        "slot": "0",
        "type": "t_bool"
      },
      {
        "astId": 8,
        "contract": "contracts/ReservePool.sol:ReservePool",
        "label": "initializing",
        "offset": 1,
        "slot": "0",
        "type": "t_bool"
      },
      {
        "astId": 73,
        "contract": "contracts/ReservePool.sol:ReservePool",
        "label": "______gap",
        "offset": 0,
        "slot": "1",
        "type": "t_array(t_uint256)50_storage"
      },
      {
        "astId": 136,
        "contract": "contracts/ReservePool.sol:ReservePool",
        "label": "VALIDATOR_CONTRACT",
        "offset": 0,
        "slot": "51",
        "type": "t_contract(IValidators)6439"
      },
      {
        "astId": 138,
        "contract": "contracts/ReservePool.sol:ReservePool",
        "label": "PUBLISH_CONTRACT",
        "offset": 0,
        "slot": "52",
        "type": "t_contract(IPunish)6322"
      },
      {
        "astId": 140,
        "contract": "contracts/ReservePool.sol:ReservePool",
        "label": "PROPOSAL_CONTRACT",
        "offset": 0,
        "slot": "53",
        "type": "t_contract(IProposal)6314"
      },
      {
        "astId": 142,
        "contract": "contracts/ReservePool.sol:ReservePool",
        "label": "RESERVEPOOL_CONTRACT",
        "offset": 0,
        "slot": "54",
        "type": "t_contract(IReservePool)6330"
      },
      {
        "astId": 144,
        "contract": "contracts/ReservePool.sol:ReservePool",
        "label": "EPOCH",
        "offset": 0,
        "slot": "55",
        "type": "t_uint256"
      },
      {
        "astId": 81,
        "contract": "contracts/ReservePool.sol:ReservePool",
        "label": "admin",
        "offset": 0,
        "slot": "56",
        "type": "t_address"
      },
      {
        "astId": 1245,
        "contract": "contracts/ReservePool.sol:ReservePool",
        "label": "blockRewardAmount",
        "offset": 0,
        "slot": "57",
        "type": "t_uint256"
      },
      {
        "astId": 1252,
        "contract": "contracts/ReservePool.sol:ReservePool",
        "label": "_rewardWithdrawnRecords",
        "offset": 0,
        "slot": "58",
        "type": "t_mapping(t_uint256,t_uint256)"
      },
      {
        "astId": 1275,
        "contract": "contracts/ReservePool.sol:ReservePool",
        "label": "state",
        "offset": 0,
        "slot": "59",
        "type": "t_enum(State)1243"
      }
    ],
    "types": {
      "t_address": {
        "encoding": "inplace",
        "label": "address",
        "numberOfBytes": "20"
      },
      "t_array(t_uint256)50_storage": {
        "base": "t_uint256",
        "encoding": "inplace",
        "label": "uint256[50]",
        "numberOfBytes": "1600"
      },
      "t_bool": {
        "encoding": "inplace",
        "label": "bool",
        "numberOfBytes": "1"
      },
      "t_contract(IProposal)6314": {
        "encoding": "inplace",
        "label": "contract IProposal",
        "numberOfBytes": "20"
      },
      "t_contract(IPunish)6322": {
        "encoding": "inplace",
        "label": "contract IPunish",
        "numberOfBytes": "20"
      },
      "t_contract(IReservePool)6330": {
        "encoding": "inplace",
        "label": "contract IReservePool",
        "numberOfBytes": "20"
      },
      "t_contract(IValidators)6439": {
        "encoding": "inplace",
        "label": "contract IValidators",
        "numberOfBytes": "20"
      },
      "t_enum(State)1243": {
        "encoding": "inplace",
        "label": "enum ReservePool.State",
        "numberOfBytes": "1"
      },
      "t_mapping(t_uint256,t_uint256)": {
        "encoding": "mapping",
        "key": "t_uint256",
        "label": "mapping(uint256 => uint256)",
        "numberOfBytes": "32",
        "value": "t_uint256"
      },
      "t_uint256": {
        "encoding": "inplace",
        "label": "uint256",
        "numberOfBytes": "32"
      }
    }
  }
}